:020000040800F2
:1000000070040020C9000008591700085D1400089A
:1000100000000000000000000000000000000000E0
:100020000000000000000000000000005D17000854
:1000300000000000000000005B1700085F170008C8
:10004000DB00000800000000DB000008DB00000807
:10005000DB0000088D05000897050008DB0000089C
:1000600000000000DB000008DB000008DB000008E7
:10007000DB000008DB000008DB00000800000000D7
:10008000DB000008DB00000800000000DB000008C7
:10009000DB000008DB000008DB000008DB000008D4
:1000A000DB000008DB000008DB000008DB000008C4
:1000B000DB0000080348854600F090F9004800473F
:1000C000691700087004002004488047044800476E
:1000D000FEE7FEE7FEE7FEE7FEE7FEE7671700083C
:1000E000B500000810B5202A04DB0846203AD040AD
:1000F000002110BD0B46D340D0402024A21A9140CD
:100100000843194610BDD2B201E00270401C491EDE
:10011000FBD270470022F6E710B513460A460446A4
:100120001946FFF7F0FF204610BD0000F0B51FB4E0
:1001300088B00B990998002448400999C00F4900DC
:1001400049080991C0070B990090490049080B9193
:1001500009990898A64608431CD00B990A980843A9
:1001600018D0099801244000420D4800410D09981B
:1001700024050003000B204309900B980003000B9B
:1001800020430B9050181C4940180022019014463F
:10019000104605E0002001460DB0F0BD032801DA4D
:1001A000034600E003239C46C11A0AAE0AE05F0042
:1001B00008ADED5B4F00F75B7D430027AA187C413B
:1001C000491C5B1E6145F2DD410004AB5A5221041B
:1001D000120C0A43240C401C0828DFDB0198029013
:1001E0000099704601910090059B049A0799069822
:1001F00000F0A1F8D0E700000DFCFFFF0EB5C2171C
:10020000C10F5040CA0740180021054B02930192CC
:1002100000910A460B4600F08EF803B000BD0000C6
:1002200033040000CB0FDB07490010B54908024634
:100230000A4307D00A0D07240903E401090B121B26
:10024000002A01DC002010BDC900440F0C43C1008E
:10025000E018D205801800F020F810BD70B50446F3
:10026000002903D000202022012310E0002801D023
:100270000020C043C046C0460DE02546D5408D4213
:1002800005D30D469540641B1D4695404019154603
:10029000521E002DF1DC214670BD002904DA401CFD
:1002A000490001D140084000704770B40024050C9B
:1002B00005D11024000402D1002921D01124050EFB
:1002C00001D100020834050F01D10001241D850F62
:1002D00001D18000A41C002801DB4000641C00291F
:1002E00008D020252E1B0D46F540A14000D001214D
:1002F0002943084301061B1B000ADB1D02D5002011
:1003000070BC7047DB05181880180029F8DA401C0B
:100310004900F5D170BC40084000704710B5002B73
:1003200008DA0024401C614192185B411A4301D154
:100330004008400010BDF0B51FB482B005460C0067
:1003400003D0084601F0EAFA02E001F0E7FA2030B3
:10035000024600902146284600F052F8049B059A78
:1003600004460F4618431143084314D0184610435F
:100370001BD0009840210A1A18460599FFF7B2FED3
:1003800005460E46009A0599049800F039F808438E
:1003900005D0012004E02046394607B0F0BD00201A
:1003A000C11705430E432C43374300990E9863054C
:1003B000401A7905E40A00220C43FD0A0A3002D5EE
:1003C00000200146E9E70105101969410C9C0D9DCB
:1003D00000196941FFF7A2FFDFE70000064C012585
:1003E000064E05E0E36807CC2B430C3C98471034DD
:1003F000B442F7D3FFF762FE98190008B819000855
:1004000010B5202A04DB0146203A9140002010BD9F
:10041000914020239C1A0346E3401943904010BDAD
:10042000F0B58BB00A460746002642C0066046601B
:10043000F04309900290012501950AAC0094A62191
:10044000104632462B4600F04BFA01462078E5284C
:1004500054D10AAC2670386800940195099A02922A
:10046000A62608962D220592079131462B4600F0CC
:1004700023FB0690082020703868009401950999A4
:1004800002913146059A2B4600F016FB05900A2092
:100490002070386800940195099E02962C220899D4
:1004A0002B4600F009FB049080202070386800A9DA
:1004B00070C12E2208992B4600F0FEFA01462570E5
:1004C000386800AA70C2079C621E9441069A002AEE
:1004D00000D0641C059A002A00D0641C049A002AEB
:1004E00000D0641C002900D0641C312208992B46DE
:1004F00000F0E2FA002802D0641C00E0FF24E0B221
:100500000BB0F0BDF0B587B0044600680021C943C8
:1005100002910621019105AD0095A6213222012309
:1005200000F0DEF90490287969790902081800B210
:10053000FFF764FE134E144F32463B46FFF7F6FDBD
:10054000FFF770FEE060A878E9780902081800B2A9
:10055000FFF754FE32463B46FFF7E8FDFFF762FE29
:10056000A060287869780902081800B2FFF746FEF3
:1005700032463B46FFF7DAFDFFF754FE6060049811
:1005800007B0F0BD92CB7F48BF7D7D3F80B5022094
:1005900000F01AF880BD80B5042000F015F880BD89
:1005A000B0B5044600F000F90546601C02D00448CE
:1005B0000078041900F0F8F8401BA042FAD3B0BD4F
:1005C000040000207047000080B504490A68024218
:1005D00002D00860FFF7F6FF80BDC046140401405A
:1005E000F0B58BB00E460390614A904201D00520D1
:1005F00000E0032000903168002900D1B5E001201F
:10060000002309930190024608960EE03843D86013
:10061000049B31680846079AD040099CA41C0994A1
:100620001B1D521C002800D19FE00792501E019F05
:10063000059087403940ECD0706803250246069546
:100640002A40551E012D049315D8069D099CA540EE
:10065000039B02919E68AE430899CD68A54035433F
:1006600002999D60C006C00F059DA8405D68BD430E
:1006700005435D60049B032A039F1DD00698099CD7
:10068000A040FD68854308988068A0402843F86032
:10069000022A11D11C2018400B460F268640059ACD
:1006A000D2089200BA18156AB54308990E698640B7
:1006B0002E4316621946049B069E30463A46099F11
:1006C000B84015688543089840688403029434460E
:1006D0003040B840284310600298800F089E98D0A0
:1006E0000F46254908680122104308600868104039
:1006F0000A900C2119400F208840059EA6430A9DB0
:100700001E4BF5588543F6180920C006039B83420B
:1007100009D01B48834207D01A488342009A154BE0
:1007200003D1022201E00022124B8A402A433260A8
:100730001868089E7568EA0301D5384300E0B8439D
:1007400018605868AA0301D5384300E0B8435860E0
:100750009868EA0201D5384300E0B8439860D86849
:10076000AA0200D552E7B84351E70BB0F0BDC0462E
:10077000000C00480004014018100240080001402D
:10078000000400480008004842690B4693430A40B1
:100790001104C91881617047002A02D018228150C3
:1007A0007047282281507047014800687047C04652
:1007B0006C000020B0B502464120135C0220202BC3
:1007C00019D1134640331C78012C14D024205870C2
:1007D000106802680124A243026022030568954361
:1007E000056002680A43026001682143016000203D
:1007F000187020215970B0BDB0B502464120135C7D
:100800000220202B19D1134640331C78012C14D020
:1008100024205870106802680124A24302600F224D
:1008200012020568954309022943016001682143CA
:1008300001600020187020215970B0BDF0B581B062
:10084000002820D00446054640356878002804D1A9
:1008500000202870204600F029FA242068702068C3
:10086000026801218A4302600F22120663689343E3
:1008700003618368184A13408360E368012B05D045
:100880002126B60203E0012001B0F0BDCE03A76827
:1008900037438760022B01D1CB02436043680F4E80
:1008A0001E434660C3681340C360226963691343F3
:1008B000A26912021A43C260E269236A1343036009
:1008C00002680A430260002060642021697020638E
:1008D000A87001B0F0BDC046FF7FFFFF008000029E
:1008E000F0B589B01746054641202A5C0220202A2F
:1008F0000BD10E9C002C0AD00F9A002A07D0079229
:100900002A4640321678012E06D109B0F0BD0120EA
:100910004102696409B0F0BD039304910120059080
:1009200006921070FFF740FF0146286880690004B6
:1009300008910CD50598C603FFF736FF0899401AB1
:100940001A2800D38FE0286880693042F4D1109EC5
:100950002220069A507040209070002068646C62DB
:1009600004466863079868850096019128460499B3
:100970003A46039B00F0BCFD002802D006980470A4
:100980007AE0688D000AC54802940BD0FF212985C2
:10099000049F394601402A685368444C1C40611842
:1009A000444B0DE0698D29852A6853683F4C1C40F3
:1009B000049F3B460340C9B20904C91809193C4BBE
:1009C000C9185160089A0740B54C0FE0688D28851A
:1009D00029684B682340C0B20004C01918430123A2
:1009E0005B0603434B60688D002848D02868806907
:1009F00040070AD4701CF9D0FFF7D6FE089A002EE3
:100A000031D0801AB042F1D92DE0686A2968496A6C
:100A10000170688D401E6885686A401C6862288D78
:100A2000401E2885698D0029DDD00004DBD12868AF
:100A3000806900060AD4701CF9D0FFF7B5FE089A49
:100A4000002E10D0801AB042F1D90CE0688D000A57
:100A5000BCD0FF2028852868416821403943914B4C
:100A600019434160BFE7686C202108436864069A17
:100A70005170002010709070059809B0F0BD2846A4
:100A8000314600F041FE00280598069C00D03CE766
:100A900028682021C1614268834B13404360617024
:100AA00002982070A07009B0F0BDC0460098007C8C
:100AB000002400820024FF81F0B589B00546412062
:100AC0002C5C0220202C0BD10E9F002F0AD00F9CF3
:100AD000002C07D008942E4640363478012C06D1DD
:100AE00009B0F0BD01204102696409B0F0BD039274
:100AF000049305910120069007963070FFF754FE8D
:100B000004462868806900040BD50698C603FFF7E1
:100B10004BFE001B1A2800D39CE0286880693042F5
:100B2000F5D1109E21200799487040208870002040
:100B300068646F6207466863089868850096089441
:100B4000019428460599039A049B00F055FD00285E
:100B500002D00798077086E00497688D000A4F4A14
:100B60004F480DD0FF212985059F394611402A683D
:100B7000536803400B434B4919435160089C12E0F2
:100B8000698D29852A68089253680340059F384675
:100B9000424A1040C9B209040918194301235B06EF
:100BA0000B43089843603D48074010E0688D288556
:100BB00029684A683A4B1A40C0B20004C019104371
:100BC0000122520602434A60688D00284ED02868F0
:100BD0008069800710D428463146224600F040FC48
:100BE000002840D1701CF2D0FFF7DEFD002E31D07E
:100BF000001BB042EBD92DE02868696A0A7882624E
:100C00006A8D521E6A85491C6962298D491E298593
:100C10006A8D002AD8D0090401D0D5E728688069F8
:100C2000000609D4701CF9D0FFF7BEFD002E11D0CC
:100C3000001BB042F2D90DE0688D000AB6D0FF204B
:100C4000288528684168164A11403943154A1143DE
:100C50004160B9E7686C202108436864079A5170C5
:100C6000002010709070069809B0F0BD28463146FB
:100C7000224600F049FD00280698079C00D02FE787
:100C800028682021C1614268074B134043606170AE
:100C900004982070A07009B0F0BDC046FF030000AA
:100CA000009C00FC0000FF0100E800FEB0B586B02B
:100CB000002105910491039102910191006812496C
:100CC000884201D006B0B0BD0125A8040F4C2168B0
:100CD00001432160216801400091059503200490A3
:100CE000039512200290C02001900098084801A9A5
:100CF000FFF776FC6805A1680143A160A168014087
:100D00000091009806B0B0BD00540040141002409D
:100D1000000400481A48007802490A681018086060
:100D20007047C0466C00002010B5C548016810220D
:100D30000A4302600024204600F004F800F024F882
:100D4000204610BDB0B504467D20C0000C4909788E
:100D5000FFF784FA0146C2480068FFF77FFA00F007
:100D600063FB0125032C09D8002807D10025E8439F
:100D700021462A4600F02AF8024804602846B0BD01
:100D8000040000200800002082B009480168012208
:100D900011430160016811400191019911074268F6
:100DA0000A434260406808400090009802B07047D3
:100DB00018100240002805D41F210840012181405D
:100DC000014801607047C04600E100E0002805D4FA
:100DD0000322034693430C4A9A1806E00F2202406E
:100DE000083A03239A43074BD2188007C00E8901A3
:100DF000C9B28140FF2383401068984308431060C4
:100E00007047C0461CED00E000E400E0F0B585B09E
:100E100004468078C007394B4DD00120039001076C
:100E20001A1F10680840029006D11068084310602D
:100E3000106808400490049800920191304E306888
:100E4000C00511D403980702306838433060FFF7BB
:100E5000ABFC05463068384206D1FFF7A5FC401BC5
:100E60006428F7D9032538E003252802234B1968A5
:100E7000014012D06268024091420ED003980004F3
:100E800019681A6802431A601A6882431A60084691
:100E90001C4A10401860C80722D118681949084038
:100EA0006168014319600298002804D1009A106813
:100EB0000199884310602068C10705D01969032291
:100EC0009143A2680A431A610025800605D5186976
:100ED00010218843E16801431961284605B0F0BD3F
:100EE000FFF762FC0646584F044B18688007D4D4BD
:100EF000FFF75AFC801BB842F6D9EEE720100240FB
:100F000000700040FFFCFFFFF0B581B0002850D01A
:100F100004464B4A1368012003408B4209D21368F0
:100F20000126B3430B431360126832408A4200D05B
:100F300082E0009121688A07424B11D54A0707D504
:100F4000072212023F4B1B6813433E4A13603D4B7E
:100F50001A68F0239A43A36813433A4A1360394B43
:100F6000C90728D13649086801263040009A9042C6
:100F700005D90868B04308600868C0075CD12078CC
:100F8000400706D50720000219688143E06808433E
:100F9000186019680C220A402C48082A16D18A02C7
:100FA000120F2B4B9C5C274B9A6AC90330D42A48FA
:100FB00035E0012640E061681A1F022908D00129A6
:100FC0000BD112689203064636D50AE0044627E0A4
:100FD0001268920106462FD503E012689207064672
:100FE0002AD518680326B04308431860FFF7DCFBD6
:100FF0000746154D134B18680C21014060688000AE
:101000008142AFD0FFF7D0FBC01BA842F2D913E05A
:101010000F210A400F49895CFFF720F9094B44432F
:1010200018680006000F0D49085CC4400C480460B5
:1010300000263046FFF786FE304601B0F0BDC046C0
:1010400000200240041002408813000000127A00C1
:10105000781900088819000800093D00681900087F
:1010600000000020F0B587B004460120002C00D11C
:10107000D1E104902078C007E84E05941FD0716834
:101080000C200140042913D071680140082902D1C5
:101090007068C0030CD460680028039000D1C5E0DC
:1010A000052800D16EE1012800D0BFE001206EE1EB
:1010B0003068800303D56068002800D1B3E0207851
:1010C00080071AD570680007800F07D070680C2160
:1010D0000140082971D17068C0036ED43068800760
:1010E000059C03D5E068012800D09CE03068F82119
:1010F00088432169C90001433160059C20780007BD
:1011000024D42078400734D42078C00600D4B3E03B
:1011100005984069411D00D1A2E0012800D0F2E00D
:10112000706B042101437163706B01210143716392
:10113000FFF73AFB0546706B800700D594E0FFF798
:1011400033FB411B03200229F5D964E1706AE16990
:10115000002958D0012108437062FFF725FB05469E
:10116000706A8007CDD4FFF71FFB401B0228F7D918
:1011700022E1012003900107F0690840029006D1A6
:10118000F0690843F061F069084006900698019103
:10119000A34F3868C00524D403980402386820435C
:1011A0003860FFF701FB05463868204219D1FFF788
:1011B000FBFA401B6428F7D9FEE03068059CE16823
:1011C00000293CD0012108433060FFF7EDFA0546C5
:1011D000306880078AD4FFF7E7FA401B0228F7D966
:1011E000EAE005988468002C05D0052C00D19FE02A
:1011F000012C00D1A0E0306A039988433062306A44
:10120000042188439BE0012188437062FFF7CCFAF8
:101210000546706A800700D473E7FFF7C5FA401BE4
:101220000228F6D9C8E0049807B0F0BD01200104F7
:1012300032688A433260810430688843AAE0012121
:1012400088433060FFF7B0FA05463068800700D465
:1012500053E7FFF7A9FA411B03200229F5D9DAE089
:10126000706B042188437063706BF8218843059983
:101270008969C900014371630598046A002C1ED076
:1012800070680C21014008291CD1012C049800D160
:10129000C1E00120030471680B40F26A059D6C6A8D
:1012A000A34200D0B7E00F231A40EC6AA24200D05C
:1012B000B1E09A041140AA6A914200D0ABE000204C
:1012C00007B0F0BD012002063168049291433160FD
:1012D0004706FFF769FA0546022C0AD1049C3068DC
:1012E000384278D0FFF760FA411B03200229F6D973
:1012F00091E030683842E2D0FFF756FA411B0320F4
:101300000229F6D987E0706B042101437163706B89
:10131000012188437063FFF747FA0546706B800729
:10132000AAD5FFF741FA411B03200229F6D972E042
:10133000306A042101433162306A03990843306204
:10134000384FFFF731FA0546002C0ED0306A80077F
:101350000ED4FFF729FA401BB842F7D92CE0FFF76B
:1013600023FA411B0320B94255D8306A8007F6D4CE
:1013700002980028059C00D0C6E6F06901998843D0
:10138000F061C1E60120810432680A433260010441
:1013900030680843306001204704FFF705FA05462E
:1013A000039800280BD03068384200D087E6FFF75A
:1013B000FBF9401B6428F6D9032007B0F0BD059C5B
:1013C0003068384200D17AE6FFF7EEF9411B03207E
:1013D0006429F5D91FE0F06A0F218843059AD16A84
:1013E0000143F1623D20000471688143906A084323
:1013F000516A01437160306820433060FFF7D4F9CF
:1014000004463068384200D059E7FFF7CDF9011B98
:1014100003200229F5D907B0F0BDC04600100240F4
:101420000070004088130000401E010E01D0012012
:1014300070470749074A5060074803680B4003217B
:1014400089075918016000209060072111607047DA
:10145000FFFFFF0010E000E020ED00E0FEE70000ED
:10146000F0B581B00E46044600688169C90602D411
:10147000002001B0F0BD15464168890104D4012166
:10148000890342680A4342602746403720688169E1
:1014900089060AD4701CF9D0FFF786F92021002EA6
:1014A00018D0401BB042F1D914E01021C1612021B5
:1014B000C1618169890701D5002181628169C907FC
:1014C00003D1816901220A4382614168074A0A40C7
:1014D00042600421606C0843606420207870002022
:1014E0003870B870012001B0F0BDC04600E800FEC1
:1014F000F0B583B002920446804808400193D9B207
:101500000904081821684A687D4B13401818394AA5
:101510008018486020464030009088698007099D07
:10152000089E0DD5019801283DD120680299C9B2C5
:1015300081628069002720E0206880698007F1D4FB
:10154000204631462A46FFF78BFF012700284DD160
:10155000701CF1D0FFF728F9002E02D0401BB042DA
:10156000EAD9606C202108436064009A5170002021
:10157000107090703AE020688069400636D4701C84
:10158000F9D0FFF711F9002E02D0401BB042F2D97A
:10159000606C202108436064009A51700020107034
:1015A0009070012722E020680299090A816200E018
:1015B000206880698007B8D4204631462A46FFF764
:1015C0004FFF0127002811D1701CF1D0FFF7ECF874
:1015D000002E02D0401BB042EAD9606C20210843A3
:1015E0006064009A5170002010709070384603B00B
:1015F000F0BDC04600200080F0B583B002920446E2
:101600003E4808400193D9B20904081821684A6885
:101610003B4B134018183B4A801848602046403026
:10162000009088698007099D089E0DD501980128C2
:101630003DD120680299C9B281628069002720E00B
:10164000206880698007F1D4204631462A46FFF79A
:1016500007FF012700284DD1701CF1D0FFF7A4F837
:10166000002E02D0401BB042EAD9606C2021084312
:101670006064009A51700020107090703AE0206809
:101680008069000636D4701CF9D0FFF78DF8002E63
:1016900002D0401BB042F2D9606C20210843606444
:1016A000009A5170002010709070012722E020688D
:1016B0000299090A816200E0206880698007B8D435
:1016C000204631462A46FFF7CBFE0127002811D1DC
:1016D000701CF1D0FFF768F8002E02D0401BB0421A
:1016E000EAD9606C202108436064009A51700020A0
:1016F00010709070384603B0F0BDC046FF03000084
:101700000098007C00200081F0B581B016460F469D
:1017100004464030009020688069800618D4204636
:1017200039463246FFF79CFE0125002811D1FFF70C
:101730003BF8002F02D0801BB842ECD9606C20210E
:1017400008436064009A517000201070907000E0AF
:101750000025284601B0F0BDFEE77047704780B510
:10176000FFF7D8FA80BD704798B0FFF7DDFA0CADEF
:1017700030212846FEF7CEFC00240B940A940994ED
:10178000089417940520C004169015940226149608
:101790001020109001200F900C9607940694059449
:1017A00004942846FFF75EFC002803D0EFF3108076
:1017B00072B6FEE70B940A9409960720089008A8D1
:1017C00001263146FFF7A0FB002803D0EFF310807D
:1017D00072B6FEE707942020049004A8FFF716FBDA
:1017E000002803D0EFF3108072B6FEE710940F9438
:1017F0000E940D940C947104424802680A430260EE
:1018000002680A4008920899F10402680A430260DB
:1018100002680A4008920899B10402680A4302600B
:10182000006808400890089803200502364F3846A3
:1018300029462246FEF7B0FF0E94092041040D917F
:101840000C96C00601900CA90291FEF7C9FE0E94F9
:10185000112000040D90062003900C90019802992D
:10186000FEF7BEFE0F940E940D960C953846029925
:10187000FEF7B6FE0520029021462246FFF7A6FAA3
:101880000298FFF797FA039821462246FFF79EFA3F
:101890000398FFF78FFA1D481D491E4A0260021D7A
:1018A00052C2046144618461C4610462FEF7C6FFF0
:1018B000002803D0EFF3108072B6FEE71348002132
:1018C000FEF778FF002803D0EFF3108072B6FEE732
:1018D0000E480021FEF790FF002803D0EFF31080A0
:1018E00072B6FEE70C4C09492046FEF799FD2046EA
:1018F000FEF708FE6420FEF753FE38462946FEF741
:1019000043FFF4E7141002400008004820000020C4
:101910000E09002000540040100000202021020C7D
:1019200001D010211046020A01D0104608390209E0
:1019300001D01046091F820801D01046891E4208B6
:1019400001D0881E7047081A704702E008C8121FAD
:1019500008C1002AFAD170477047002001E001C198
:10196000121F002AFBD17047000000000000000099
:101970000102030406070809020304050607080913
:101980000A0B0C0D0E0F10100102030405060708C8
:10199000090A0B0C0D0E0F10B819000800000020EA
:1019A000100000004A190008C819000810000020A3
:1019B000600400005A19000800127A0001000000BB
:0819C00004000000000000001B
:04000005080000B53A
:00000001FF
